{
  "_format": "hh-sol-artifact-1",
  "contractName": "AuditBountyEscrow",
  "sourceName": "contracts/AuditBountyEscrow.sol",
  "abi": [
    {
      "inputs": [
        {
          "internalType": "address",
          "name": "initialOwner",
          "type": "address"
        }
      ],
      "stateMutability": "nonpayable",
      "type": "constructor"
    },
    {
      "inputs": [
        {
          "internalType": "address",
          "name": "owner",
          "type": "address"
        }
      ],
      "name": "OwnableInvalidOwner",
      "type": "error"
    },
    {
      "inputs": [
        {
          "internalType": "address",
          "name": "account",
          "type": "address"
        }
      ],
      "name": "OwnableUnauthorizedAccount",
      "type": "error"
    },
    {
      "inputs": [],
      "name": "ReentrancyGuardReentrantCall",
      "type": "error"
    },
    {
      "anonymous": false,
      "inputs": [
        {
          "indexed": true,
          "internalType": "address",
          "name": "agentAddress",
          "type": "address"
        },
        {
          "indexed": false,
          "internalType": "string",
          "name": "name",
          "type": "string"
        }
      ],
      "name": "AgentRegistered",
      "type": "event"
    },
    {
      "anonymous": false,
      "inputs": [
        {
          "indexed": true,
          "internalType": "uint256",
          "name": "bountyId",
          "type": "uint256"
        },
        {
          "indexed": true,
          "internalType": "address",
          "name": "client",
          "type": "address"
        },
        {
          "indexed": false,
          "internalType": "uint256",
          "name": "amount",
          "type": "uint256"
        },
        {
          "indexed": false,
          "internalType": "string",
          "name": "codeUri",
          "type": "string"
        }
      ],
      "name": "BountyCreated",
      "type": "event"
    },
    {
      "anonymous": false,
      "inputs": [
        {
          "indexed": true,
          "internalType": "uint256",
          "name": "bountyId",
          "type": "uint256"
        },
        {
          "indexed": true,
          "internalType": "address",
          "name": "agent",
          "type": "address"
        },
        {
          "indexed": false,
          "internalType": "uint256",
          "name": "amount",
          "type": "uint256"
        },
        {
          "indexed": false,
          "internalType": "bool",
          "name": "isValid",
          "type": "bool"
        }
      ],
      "name": "BountyFinalized",
      "type": "event"
    },
    {
      "anonymous": false,
      "inputs": [
        {
          "indexed": true,
          "internalType": "uint256",
          "name": "bountyId",
          "type": "uint256"
        },
        {
          "indexed": true,
          "internalType": "address",
          "name": "client",
          "type": "address"
        },
        {
          "indexed": false,
          "internalType": "uint256",
          "name": "amount",
          "type": "uint256"
        }
      ],
      "name": "BountyRefunded",
      "type": "event"
    },
    {
      "anonymous": false,
      "inputs": [
        {
          "indexed": true,
          "internalType": "address",
          "name": "previousOwner",
          "type": "address"
        },
        {
          "indexed": true,
          "internalType": "address",
          "name": "newOwner",
          "type": "address"
        }
      ],
      "name": "OwnershipTransferred",
      "type": "event"
    },
    {
      "anonymous": false,
      "inputs": [
        {
          "indexed": true,
          "internalType": "uint256",
          "name": "bountyId",
          "type": "uint256"
        },
        {
          "indexed": true,
          "internalType": "address",
          "name": "agent",
          "type": "address"
        },
        {
          "indexed": false,
          "internalType": "string",
          "name": "reportUri",
          "type": "string"
        }
      ],
      "name": "WorkSubmitted",
      "type": "event"
    },
    {
      "inputs": [
        {
          "internalType": "uint256",
          "name": "",
          "type": "uint256"
        }
      ],
      "name": "agentList",
      "outputs": [
        {
          "internalType": "address",
          "name": "",
          "type": "address"
        }
      ],
      "stateMutability": "view",
      "type": "function"
    },
    {
      "inputs": [
        {
          "internalType": "address",
          "name": "",
          "type": "address"
        }
      ],
      "name": "agentReputation",
      "outputs": [
        {
          "internalType": "uint256",
          "name": "",
          "type": "uint256"
        }
      ],
      "stateMutability": "view",
      "type": "function"
    },
    {
      "inputs": [
        {
          "internalType": "address",
          "name": "",
          "type": "address"
        }
      ],
      "name": "agents",
      "outputs": [
        {
          "internalType": "string",
          "name": "name",
          "type": "string"
        },
        {
          "internalType": "string",
          "name": "bio",
          "type": "string"
        },
        {
          "internalType": "address",
          "name": "wallet",
          "type": "address"
        },
        {
          "internalType": "bool",
          "name": "isRegistered",
          "type": "bool"
        },
        {
          "internalType": "uint256",
          "name": "registeredAt",
          "type": "uint256"
        }
      ],
      "stateMutability": "view",
      "type": "function"
    },
    {
      "inputs": [
        {
          "internalType": "uint256",
          "name": "",
          "type": "uint256"
        }
      ],
      "name": "bounties",
      "outputs": [
        {
          "internalType": "address",
          "name": "client",
          "type": "address"
        },
        {
          "internalType": "uint256",
          "name": "amount",
          "type": "uint256"
        },
        {
          "internalType": "string",
          "name": "codeUri",
          "type": "string"
        },
        {
          "internalType": "bool",
          "name": "isOpen",
          "type": "bool"
        },
        {
          "internalType": "address",
          "name": "assignedAgent",
          "type": "address"
        },
        {
          "internalType": "string",
          "name": "reportUri",
          "type": "string"
        },
        {
          "internalType": "uint256",
          "name": "createdAt",
          "type": "uint256"
        }
      ],
      "stateMutability": "view",
      "type": "function"
    },
    {
      "inputs": [],
      "name": "bountyCounter",
      "outputs": [
        {
          "internalType": "uint256",
          "name": "",
          "type": "uint256"
        }
      ],
      "stateMutability": "view",
      "type": "function"
    },
    {
      "inputs": [
        {
          "internalType": "string",
          "name": "_codeUri",
          "type": "string"
        }
      ],
      "name": "createBounty",
      "outputs": [],
      "stateMutability": "payable",
      "type": "function"
    },
    {
      "inputs": [
        {
          "internalType": "uint256",
          "name": "_bountyId",
          "type": "uint256"
        },
        {
          "internalType": "address",
          "name": "_agent",
          "type": "address"
        },
        {
          "internalType": "bool",
          "name": "_isValid",
          "type": "bool"
        },
        {
          "internalType": "uint256",
          "name": "_scoreToAdd",
          "type": "uint256"
        }
      ],
      "name": "finalizeBounty",
      "outputs": [],
      "stateMutability": "nonpayable",
      "type": "function"
    },
    {
      "inputs": [],
      "name": "getAllAgents",
      "outputs": [
        {
          "components": [
            {
              "internalType": "string",
              "name": "name",
              "type": "string"
            },
            {
              "internalType": "string",
              "name": "bio",
              "type": "string"
            },
            {
              "internalType": "address",
              "name": "wallet",
              "type": "address"
            },
            {
              "internalType": "bool",
              "name": "isRegistered",
              "type": "bool"
            },
            {
              "internalType": "uint256",
              "name": "registeredAt",
              "type": "uint256"
            }
          ],
          "internalType": "struct AuditBountyEscrow.Agent[]",
          "name": "",
          "type": "tuple[]"
        }
      ],
      "stateMutability": "view",
      "type": "function"
    },
    {
      "inputs": [
        {
          "internalType": "uint256",
          "name": "_bountyId",
          "type": "uint256"
        }
      ],
      "name": "getBounty",
      "outputs": [
        {
          "components": [
            {
              "internalType": "address",
              "name": "client",
              "type": "address"
            },
            {
              "internalType": "uint256",
              "name": "amount",
              "type": "uint256"
            },
            {
              "internalType": "string",
              "name": "codeUri",
              "type": "string"
            },
            {
              "internalType": "bool",
              "name": "isOpen",
              "type": "bool"
            },
            {
              "internalType": "address",
              "name": "assignedAgent",
              "type": "address"
            },
            {
              "internalType": "string",
              "name": "reportUri",
              "type": "string"
            },
            {
              "internalType": "uint256",
              "name": "createdAt",
              "type": "uint256"
            }
          ],
          "internalType": "struct AuditBountyEscrow.Bounty",
          "name": "",
          "type": "tuple"
        }
      ],
      "stateMutability": "view",
      "type": "function"
    },
    {
      "inputs": [],
      "name": "owner",
      "outputs": [
        {
          "internalType": "address",
          "name": "",
          "type": "address"
        }
      ],
      "stateMutability": "view",
      "type": "function"
    },
    {
      "inputs": [
        {
          "internalType": "uint256",
          "name": "_bountyId",
          "type": "uint256"
        }
      ],
      "name": "refundBounty",
      "outputs": [],
      "stateMutability": "nonpayable",
      "type": "function"
    },
    {
      "inputs": [
        {
          "internalType": "string",
          "name": "_name",
          "type": "string"
        },
        {
          "internalType": "string",
          "name": "_bio",
          "type": "string"
        }
      ],
      "name": "registerAgent",
      "outputs": [],
      "stateMutability": "nonpayable",
      "type": "function"
    },
    {
      "inputs": [],
      "name": "renounceOwnership",
      "outputs": [],
      "stateMutability": "nonpayable",
      "type": "function"
    },
    {
      "inputs": [
        {
          "internalType": "uint256",
          "name": "_bountyId",
          "type": "uint256"
        },
        {
          "internalType": "string",
          "name": "_reportUri",
          "type": "string"
        }
      ],
      "name": "submitWork",
      "outputs": [],
      "stateMutability": "nonpayable",
      "type": "function"
    },
    {
      "inputs": [
        {
          "internalType": "address",
          "name": "newOwner",
          "type": "address"
        }
      ],
      "name": "transferOwnership",
      "outputs": [],
      "stateMutability": "nonpayable",
      "type": "function"
    }
  ],
  "bytecode": "0x60806040523480156200001157600080fd5b5060405162002dae38038062002dae8339818101604052810190620000379190620001fb565b80600073ffffffffffffffffffffffffffffffffffffffff168173ffffffffffffffffffffffffffffffffffffffff1603620000ad5760006040517f1e4fbdf7000000000000000000000000000000000000000000000000000000008152600401620000a491906200023e565b60405180910390fd5b620000be81620000cd60201b60201c565b5060018081905550506200025b565b60008060009054906101000a900473ffffffffffffffffffffffffffffffffffffffff169050816000806101000a81548173ffffffffffffffffffffffffffffffffffffffff021916908373ffffffffffffffffffffffffffffffffffffffff1602179055508173ffffffffffffffffffffffffffffffffffffffff168173ffffffffffffffffffffffffffffffffffffffff167f8be0079c531659141344cd1fd0a4f28419497f9722a3daafe3b4186f6b6457e060405160405180910390a35050565b600080fd5b600073ffffffffffffffffffffffffffffffffffffffff82169050919050565b6000620001c38262000196565b9050919050565b620001d581620001b6565b8114620001e157600080fd5b50565b600081519050620001f581620001ca565b92915050565b60006020828403121562000214576200021362000191565b5b60006200022484828501620001e4565b91505092915050565b6200023881620001b6565b82525050565b60006020820190506200025560008301846200022d565b92915050565b612b43806200026b6000396000f3fe6080604052600436106100e85760003560e01c80638da5cb5b1161008a578063ee8c4bbf11610059578063ee8c4bbf146102d9578063f2fde38b14610316578063fd66091e1461033f578063ff17aca414610380576100e8565b80638da5cb5b14610217578063a0d5978714610242578063da8accf91461026d578063dc2f874414610296576100e8565b806354de6e32116100c657806354de6e321461016f57806358b1f29c146101ac578063715018a6146101d5578063860e4ac6146101ec576100e8565b806306868c4b146100ed5780631aafcd53146101095780632f80c54f14610132575b600080fd5b61010760048036038101906101029190611b75565b6103a9565b005b34801561011557600080fd5b50610130600480360381019061012b9190611c8a565b610626565b005b34801561013e57600080fd5b5061015960048036038101906101549190611cf1565b6108e5565b6040516101669190611d2d565b60405180910390f35b34801561017b57600080fd5b5061019660048036038101906101919190611d48565b610924565b6040516101a39190611d84565b60405180910390f35b3480156101b857600080fd5b506101d360048036038101906101ce9190611cf1565b61093c565b005b3480156101e157600080fd5b506101ea610b29565b005b3480156101f857600080fd5b50610201610b3d565b60405161020e9190611f8a565b60405180910390f35b34801561022357600080fd5b5061022c610e0c565b6040516102399190611d2d565b60405180910390f35b34801561024e57600080fd5b50610257610e35565b6040516102649190611d84565b60405180910390f35b34801561027957600080fd5b50610294600480360381019061028f9190611fac565b610e3b565b005b3480156102a257600080fd5b506102bd60048036038101906102b89190611cf1565b610f4b565b6040516102d09796959493929190612061565b60405180910390f35b3480156102e557600080fd5b5061030060048036038101906102fb9190611cf1565b6110ea565b60405161030d9190612181565b60405180910390f35b34801561032257600080fd5b5061033d60048036038101906103389190611d48565b611316565b005b34801561034b57600080fd5b5061036660048036038101906103619190611d48565b61139c565b6040516103779594939291906121a3565b60405180910390f35b34801561038c57600080fd5b506103a760048036038101906103a29190612204565b61150f565b005b6103b16117c7565b600034116103f4576040517f08c379a00000000000000000000000000000000000000000000000000000000081526004016103eb906122ee565b60405180910390fd5b6000815111610438576040517f08c379a000000000000000000000000000000000000000000000000000000000815260040161042f9061235a565b60405180910390fd5b6002600081548092919061044b906123a9565b91905055506040518060e001604052803373ffffffffffffffffffffffffffffffffffffffff168152602001348152602001828152602001600115158152602001600073ffffffffffffffffffffffffffffffffffffffff1681526020016040518060200160405280600081525081526020014281525060036000600254815260200190815260200160002060008201518160000160006101000a81548173ffffffffffffffffffffffffffffffffffffffff021916908373ffffffffffffffffffffffffffffffffffffffff16021790555060208201518160010155604082015181600201908161053d91906125fd565b5060608201518160030160006101000a81548160ff02191690831515021790555060808201518160030160016101000a81548173ffffffffffffffffffffffffffffffffffffffff021916908373ffffffffffffffffffffffffffffffffffffffff16021790555060a08201518160040190816105ba91906125fd565b5060c082015181600501559050503373ffffffffffffffffffffffffffffffffffffffff166002547faa830c985894057f0d100743defcad006f0a1abc40d080c9a23acc9a8110684934846040516106139291906126cf565b60405180910390a361062361180d565b50565b61062e611816565b6106366117c7565b60006003600086815260200190815260200160002090508060030160009054906101000a900460ff1661069e576040517f08c379a00000000000000000000000000000000000000000000000000000000081526004016106959061274b565b60405180910390fd5b82156108d557600073ffffffffffffffffffffffffffffffffffffffff168473ffffffffffffffffffffffffffffffffffffffff1603610713576040517f08c379a000000000000000000000000000000000000000000000000000000000815260040161070a906127dd565b60405180910390fd5b60008160030160006101000a81548160ff021916908315150217905550838160030160016101000a81548173ffffffffffffffffffffffffffffffffffffffff021916908373ffffffffffffffffffffffffffffffffffffffff16021790555060008473ffffffffffffffffffffffffffffffffffffffff16826001015460405161079d9061282e565b60006040518083038185875af1925050503d80600081146107da576040519150601f19603f3d011682016040523d82523d6000602084013e6107df565b606091505b5050905080610823576040517f08c379a000000000000000000000000000000000000000000000000000000000815260040161081a9061288f565b60405180910390fd5b82600460008773ffffffffffffffffffffffffffffffffffffffff1673ffffffffffffffffffffffffffffffffffffffff168152602001908152602001600020600082825461087291906128af565b925050819055508473ffffffffffffffffffffffffffffffffffffffff16867fb83e349a728a54646364f9a2137d98e9ba63bf182cc5fff571516f66313cd64d846001015460016040516108c79291906128e3565b60405180910390a3506108d6565b5b506108df61180d565b50505050565b600681815481106108f557600080fd5b906000526020600020016000915054906101000a900473ffffffffffffffffffffffffffffffffffffffff1681565b60046020528060005260406000206000915090505481565b610944611816565b61094c6117c7565b60006003600083815260200190815260200160002090508060030160009054906101000a900460ff166109b4576040517f08c379a00000000000000000000000000000000000000000000000000000000081526004016109ab9061274b565b60405180910390fd5b60008160030160006101000a81548160ff02191690831515021790555060008160000160009054906101000a900473ffffffffffffffffffffffffffffffffffffffff1673ffffffffffffffffffffffffffffffffffffffff168260010154604051610a1f9061282e565b60006040518083038185875af1925050503d8060008114610a5c576040519150601f19603f3d011682016040523d82523d6000602084013e610a61565b606091505b5050905080610aa5576040517f08c379a0000000000000000000000000000000000000000000000000000000008152600401610a9c90612958565b60405180910390fd5b8160000160009054906101000a900473ffffffffffffffffffffffffffffffffffffffff1673ffffffffffffffffffffffffffffffffffffffff16837ff1ed347f033f54c0d6f1589c933d81b4256cf2f72a785106e3653a565f7433a28460010154604051610b149190611d84565b60405180910390a35050610b2661180d565b50565b610b31611816565b610b3b600061189d565b565b6060600060068054905067ffffffffffffffff811115610b6057610b5f611a4a565b5b604051908082528060200260200182016040528015610b9957816020015b610b86611969565b815260200190600190039081610b7e5790505b50905060005b600680549050811015610e04576005600060068381548110610bc457610bc3612978565b5b9060005260206000200160009054906101000a900473ffffffffffffffffffffffffffffffffffffffff1673ffffffffffffffffffffffffffffffffffffffff1673ffffffffffffffffffffffffffffffffffffffff1681526020019081526020016000206040518060a0016040529081600082018054610c4490612420565b80601f0160208091040260200160405190810160405280929190818152602001828054610c7090612420565b8015610cbd5780601f10610c9257610100808354040283529160200191610cbd565b820191906000526020600020905b815481529060010190602001808311610ca057829003601f168201915b50505050508152602001600182018054610cd690612420565b80601f0160208091040260200160405190810160405280929190818152602001828054610d0290612420565b8015610d4f5780601f10610d2457610100808354040283529160200191610d4f565b820191906000526020600020905b815481529060010190602001808311610d3257829003601f168201915b505050505081526020016002820160009054906101000a900473ffffffffffffffffffffffffffffffffffffffff1673ffffffffffffffffffffffffffffffffffffffff1673ffffffffffffffffffffffffffffffffffffffff1681526020016002820160149054906101000a900460ff16151515158152602001600382015481525050828281518110610de657610de5612978565b5b60200260200101819052508080610dfc906123a9565b915050610b9f565b508091505090565b60008060009054906101000a900473ffffffffffffffffffffffffffffffffffffffff16905090565b60025481565b610e436117c7565b60006003600084815260200190815260200160002090508060030160009054906101000a900460ff16610eab576040517f08c379a0000000000000000000000000000000000000000000000000000000008152600401610ea29061274b565b60405180910390fd5b6000825111610eef576040517f08c379a0000000000000000000000000000000000000000000000000000000008152600401610ee6906129f3565b60405180910390fd5b3373ffffffffffffffffffffffffffffffffffffffff16837fd5d9bc882dc95f198786a74e52a0b87e49a07c80921b74821ba374339e394d3084604051610f369190612a13565b60405180910390a350610f4761180d565b5050565b60036020528060005260406000206000915090508060000160009054906101000a900473ffffffffffffffffffffffffffffffffffffffff1690806001015490806002018054610f9a90612420565b80601f0160208091040260200160405190810160405280929190818152602001828054610fc690612420565b80156110135780601f10610fe857610100808354040283529160200191611013565b820191906000526020600020905b815481529060010190602001808311610ff657829003601f168201915b5050505050908060030160009054906101000a900460ff16908060030160019054906101000a900473ffffffffffffffffffffffffffffffffffffffff169080600401805461106190612420565b80601f016020809104026020016040519081016040528092919081815260200182805461108d90612420565b80156110da5780601f106110af576101008083540402835291602001916110da565b820191906000526020600020905b8154815290600101906020018083116110bd57829003601f168201915b5050505050908060050154905087565b6110f26119b0565b600360008381526020019081526020016000206040518060e00160405290816000820160009054906101000a900473ffffffffffffffffffffffffffffffffffffffff1673ffffffffffffffffffffffffffffffffffffffff1673ffffffffffffffffffffffffffffffffffffffff1681526020016001820154815260200160028201805461118090612420565b80601f01602080910402602001604051908101604052809291908181526020018280546111ac90612420565b80156111f95780601f106111ce576101008083540402835291602001916111f9565b820191906000526020600020905b8154815290600101906020018083116111dc57829003601f168201915b505050505081526020016003820160009054906101000a900460ff161515151581526020016003820160019054906101000a900473ffffffffffffffffffffffffffffffffffffffff1673ffffffffffffffffffffffffffffffffffffffff1673ffffffffffffffffffffffffffffffffffffffff16815260200160048201805461128390612420565b80601f01602080910402602001604051908101604052809291908181526020018280546112af90612420565b80156112fc5780601f106112d1576101008083540402835291602001916112fc565b820191906000526020600020905b8154815290600101906020018083116112df57829003601f168201915b505050505081526020016005820154815250509050919050565b61131e611816565b600073ffffffffffffffffffffffffffffffffffffffff168173ffffffffffffffffffffffffffffffffffffffff16036113905760006040517f1e4fbdf70000000000000000000000000000000000000000000000000000000081526004016113879190611d2d565b60405180910390fd5b6113998161189d565b50565b60056020528060005260406000206000915090508060000180546113bf90612420565b80601f01602080910402602001604051908101604052809291908181526020018280546113eb90612420565b80156114385780601f1061140d57610100808354040283529160200191611438565b820191906000526020600020905b81548152906001019060200180831161141b57829003601f168201915b50505050509080600101805461144d90612420565b80601f016020809104026020016040519081016040528092919081815260200182805461147990612420565b80156114c65780601f1061149b576101008083540402835291602001916114c6565b820191906000526020600020905b8154815290600101906020018083116114a957829003601f168201915b5050505050908060020160009054906101000a900473ffffffffffffffffffffffffffffffffffffffff16908060020160149054906101000a900460ff16908060030154905085565b6115176117c7565b600560003373ffffffffffffffffffffffffffffffffffffffff1673ffffffffffffffffffffffffffffffffffffffff16815260200190815260200160002060020160149054906101000a900460ff16156115a7576040517f08c379a000000000000000000000000000000000000000000000000000000000815260040161159e90612a81565b60405180910390fd5b60008251116115eb576040517f08c379a00000000000000000000000000000000000000000000000000000000081526004016115e290612aed565b60405180910390fd5b6040518060a001604052808381526020018281526020013373ffffffffffffffffffffffffffffffffffffffff16815260200160011515815260200142815250600560003373ffffffffffffffffffffffffffffffffffffffff1673ffffffffffffffffffffffffffffffffffffffff168152602001908152602001600020600082015181600001908161167f91906125fd565b50602082015181600101908161169591906125fd565b5060408201518160020160006101000a81548173ffffffffffffffffffffffffffffffffffffffff021916908373ffffffffffffffffffffffffffffffffffffffff16021790555060608201518160020160146101000a81548160ff021916908315150217905550608082015181600301559050506006339080600181540180825580915050600190039060005260206000200160009091909190916101000a81548173ffffffffffffffffffffffffffffffffffffffff021916908373ffffffffffffffffffffffffffffffffffffffff1602179055503373ffffffffffffffffffffffffffffffffffffffff167fda816ca2fc37b9eecec62ae8263008ec6be1afb38dc28bc9c7c51d7e348da9c2836040516117b39190612a13565b60405180910390a26117c361180d565b5050565b600260015403611803576040517f3ee5aeb500000000000000000000000000000000000000000000000000000000815260040160405180910390fd5b6002600181905550565b60018081905550565b61181e611961565b73ffffffffffffffffffffffffffffffffffffffff1661183c610e0c565b73ffffffffffffffffffffffffffffffffffffffff161461189b5761185f611961565b6040517f118cdaa70000000000000000000000000000000000000000000000000000000081526004016118929190611d2d565b60405180910390fd5b565b60008060009054906101000a900473ffffffffffffffffffffffffffffffffffffffff169050816000806101000a81548173ffffffffffffffffffffffffffffffffffffffff021916908373ffffffffffffffffffffffffffffffffffffffff1602179055508173ffffffffffffffffffffffffffffffffffffffff168173ffffffffffffffffffffffffffffffffffffffff167f8be0079c531659141344cd1fd0a4f28419497f9722a3daafe3b4186f6b6457e060405160405180910390a35050565b600033905090565b6040518060a001604052806060815260200160608152602001600073ffffffffffffffffffffffffffffffffffffffff168152602001600015158152602001600081525090565b6040518060e00160405280600073ffffffffffffffffffffffffffffffffffffffff1681526020016000815260200160608152602001600015158152602001600073ffffffffffffffffffffffffffffffffffffffff16815260200160608152602001600081525090565b6000604051905090565b600080fd5b600080fd5b600080fd5b600080fd5b6000601f19601f8301169050919050565b7f4e487b7100000000000000000000000000000000000000000000000000000000600052604160045260246000fd5b611a8282611a39565b810181811067ffffffffffffffff82111715611aa157611aa0611a4a565b5b80604052505050565b6000611ab4611a1b565b9050611ac08282611a79565b919050565b600067ffffffffffffffff821115611ae057611adf611a4a565b5b611ae982611a39565b9050602081019050919050565b82818337600083830152505050565b6000611b18611b1384611ac5565b611aaa565b905082815260208101848484011115611b3457611b33611a34565b5b611b3f848285611af6565b509392505050565b600082601f830112611b5c57611b5b611a2f565b5b8135611b6c848260208601611b05565b91505092915050565b600060208284031215611b8b57611b8a611a25565b5b600082013567ffffffffffffffff811115611ba957611ba8611a2a565b5b611bb584828501611b47565b91505092915050565b6000819050919050565b611bd181611bbe565b8114611bdc57600080fd5b50565b600081359050611bee81611bc8565b92915050565b600073ffffffffffffffffffffffffffffffffffffffff82169050919050565b6000611c1f82611bf4565b9050919050565b611c2f81611c14565b8114611c3a57600080fd5b50565b600081359050611c4c81611c26565b92915050565b60008115159050919050565b611c6781611c52565b8114611c7257600080fd5b50565b600081359050611c8481611c5e565b92915050565b60008060008060808587031215611ca457611ca3611a25565b5b6000611cb287828801611bdf565b9450506020611cc387828801611c3d565b9350506040611cd487828801611c75565b9250506060611ce587828801611bdf565b91505092959194509250565b600060208284031215611d0757611d06611a25565b5b6000611d1584828501611bdf565b91505092915050565b611d2781611c14565b82525050565b6000602082019050611d426000830184611d1e565b92915050565b600060208284031215611d5e57611d5d611a25565b5b6000611d6c84828501611c3d565b91505092915050565b611d7e81611bbe565b82525050565b6000602082019050611d996000830184611d75565b92915050565b600081519050919050565b600082825260208201905092915050565b6000819050602082019050919050565b600081519050919050565b600082825260208201905092915050565b60005b83811015611e05578082015181840152602081019050611dea565b60008484015250505050565b6000611e1c82611dcb565b611e268185611dd6565b9350611e36818560208601611de7565b611e3f81611a39565b840191505092915050565b611e5381611c14565b82525050565b611e6281611c52565b82525050565b611e7181611bbe565b82525050565b600060a0830160008301518482036000860152611e948282611e11565b91505060208301518482036020860152611eae8282611e11565b9150506040830151611ec36040860182611e4a565b506060830151611ed66060860182611e59565b506080830151611ee96080860182611e68565b508091505092915050565b6000611f008383611e77565b905092915050565b6000602082019050919050565b6000611f2082611d9f565b611f2a8185611daa565b935083602082028501611f3c85611dbb565b8060005b85811015611f785784840389528151611f598582611ef4565b9450611f6483611f08565b925060208a01995050600181019050611f40565b50829750879550505050505092915050565b60006020820190508181036000830152611fa48184611f15565b905092915050565b60008060408385031215611fc357611fc2611a25565b5b6000611fd185828601611bdf565b925050602083013567ffffffffffffffff811115611ff257611ff1611a2a565b5b611ffe85828601611b47565b9150509250929050565b600082825260208201905092915050565b600061202482611dcb565b61202e8185612008565b935061203e818560208601611de7565b61204781611a39565b840191505092915050565b61205b81611c52565b82525050565b600060e082019050612076600083018a611d1e565b6120836020830189611d75565b81810360408301526120958188612019565b90506120a46060830187612052565b6120b16080830186611d1e565b81810360a08301526120c38185612019565b90506120d260c0830184611d75565b98975050505050505050565b600060e0830160008301516120f66000860182611e4a565b5060208301516121096020860182611e68565b50604083015184820360408601526121218282611e11565b91505060608301516121366060860182611e59565b5060808301516121496080860182611e4a565b5060a083015184820360a08601526121618282611e11565b91505060c083015161217660c0860182611e68565b508091505092915050565b6000602082019050818103600083015261219b81846120de565b905092915050565b600060a08201905081810360008301526121bd8188612019565b905081810360208301526121d18187612019565b90506121e06040830186611d1e565b6121ed6060830185612052565b6121fa6080830184611d75565b9695505050505050565b6000806040838503121561221b5761221a611a25565b5b600083013567ffffffffffffffff81111561223957612238611a2a565b5b61224585828601611b47565b925050602083013567ffffffffffffffff81111561226657612265611a2a565b5b61227285828601611b47565b9150509250929050565b7f426f756e747920616d6f756e74206d757374206265206772656174657220746860008201527f616e203000000000000000000000000000000000000000000000000000000000602082015250565b60006122d8602483612008565b91506122e38261227c565b604082019050919050565b60006020820190508181036000830152612307816122cb565b9050919050565b7f436f646520555249206973207265717569726564000000000000000000000000600082015250565b6000612344601483612008565b915061234f8261230e565b602082019050919050565b6000602082019050818103600083015261237381612337565b9050919050565b7f4e487b7100000000000000000000000000000000000000000000000000000000600052601160045260246000fd5b60006123b482611bbe565b91507fffffffffffffffffffffffffffffffffffffffffffffffffffffffffffffffff82036123e6576123e561237a565b5b600182019050919050565b7f4e487b7100000000000000000000000000000000000000000000000000000000600052602260045260246000fd5b6000600282049050600182168061243857607f821691505b60208210810361244b5761244a6123f1565b5b50919050565b60008190508160005260206000209050919050565b60006020601f8301049050919050565b600082821b905092915050565b6000600883026124b37fffffffffffffffffffffffffffffffffffffffffffffffffffffffffffffffff82612476565b6124bd8683612476565b95508019841693508086168417925050509392505050565b6000819050919050565b60006124fa6124f56124f084611bbe565b6124d5565b611bbe565b9050919050565b6000819050919050565b612514836124df565b61252861252082612501565b848454612483565b825550505050565b600090565b61253d612530565b61254881848461250b565b505050565b5b8181101561256c57612561600082612535565b60018101905061254e565b5050565b601f8211156125b15761258281612451565b61258b84612466565b8101602085101561259a578190505b6125ae6125a685612466565b83018261254d565b50505b505050565b600082821c905092915050565b60006125d4600019846008026125b6565b1980831691505092915050565b60006125ed83836125c3565b9150826002028217905092915050565b61260682611dcb565b67ffffffffffffffff81111561261f5761261e611a4a565b5b6126298254612420565b612634828285612570565b600060209050601f8311600181146126675760008415612655578287015190505b61265f85826125e1565b8655506126c7565b601f19841661267586612451565b60005b8281101561269d57848901518255600182019150602085019450602081019050612678565b868310156126ba57848901516126b6601f8916826125c3565b8355505b6001600288020188555050505b505050505050565b60006040820190506126e46000830185611d75565b81810360208301526126f68184612019565b90509392505050565b7f426f756e7479206973206e6f74206f70656e0000000000000000000000000000600082015250565b6000612735601283612008565b9150612740826126ff565b602082019050919050565b6000602082019050818103600083015261276481612728565b9050919050565b7f4167656e74206164647265737320726571756972656420666f722076616c696460008201527f207061796d656e74000000000000000000000000000000000000000000000000602082015250565b60006127c7602883612008565b91506127d28261276b565b604082019050919050565b600060208201905081810360008301526127f6816127ba565b9050919050565b600081905092915050565b50565b60006128186000836127fd565b915061282382612808565b600082019050919050565b60006128398261280b565b9150819050919050565b7f5472616e73666572206661696c65640000000000000000000000000000000000600082015250565b6000612879600f83612008565b915061288482612843565b602082019050919050565b600060208201905081810360008301526128a88161286c565b9050919050565b60006128ba82611bbe565b91506128c583611bbe565b92508282019050808211156128dd576128dc61237a565b5b92915050565b60006040820190506128f86000830185611d75565b6129056020830184612052565b9392505050565b7f526566756e64206661696c656400000000000000000000000000000000000000600082015250565b6000612942600d83612008565b915061294d8261290c565b602082019050919050565b6000602082019050818103600083015261297181612935565b9050919050565b7f4e487b7100000000000000000000000000000000000000000000000000000000600052603260045260246000fd5b7f5265706f72742055524920697320726571756972656400000000000000000000600082015250565b60006129dd601683612008565b91506129e8826129a7565b602082019050919050565b60006020820190508181036000830152612a0c816129d0565b9050919050565b60006020820190508181036000830152612a2d8184612019565b905092915050565b7f4167656e7420616c726561647920726567697374657265640000000000000000600082015250565b6000612a6b601883612008565b9150612a7682612a35565b602082019050919050565b60006020820190508181036000830152612a9a81612a5e565b9050919050565b7f4e616d6520697320726571756972656400000000000000000000000000000000600082015250565b6000612ad7601083612008565b9150612ae282612aa1565b602082019050919050565b60006020820190508181036000830152612b0681612aca565b905091905056fea2646970667358221220720553a269db0e5dc87ee541bede051dd921ae28e05dc101dbad835207535d0064736f6c63430008140033",
  "linkReferences": {},
  "deployedLinkReferences": {}
}